:020000040800F2
:1000000088F3002019200008E9030008EB0300082A
:10001000EF030008F3030008F703000800000000E6
:10002000000000000000000000000000FB030008CA
:10003000FD03000800000000FF03000801040008A1
:100040003320000833200008332000083320000844
:100050003320000833200008332000083320000834
:100060003320000833200008332000083320000824
:100070003320000833200008332000083320000814
:100080003320000833200008332000083320000804
:1000900033200008332000083320000833200008F4
:1000A00033200008332000083320000833200008E4
:1000B00033200008B3170008271800085B1D00084C
:1000C000FF1D0008332000083320000833200008FB
:1000D00033200008CD5D0008195E0008655E000849
:1000E00033200008332000083320000800000000FF
:1000F0000000000000000000000000000000000000
:100100000000000000000000332000083320000839
:10011000B15E0008332000083320000833200008B7
:100120003320000833200008332000083320000863
:10013000332000086B1A0008332000083320000821
:100140003320000833200008332000083320000843
:10015000DFF80CD018F09CF900480047F5020008C1
:1001600088F300202DE9F04104460D4617469846D5
:1001700000262A462146844805F0B8FB2A46214637
:10018000824805F0B3FB2946204606F03CFB0646B4
:100190003046BDE8F0812DE9F04104460D46164693
:1001A0001F462A4621467A4805F0A0FB2A462146EA
:1001B000754805F09BFB2946204606F0E0FA012031
:1001C000BDE8F0812DE9F04104460D4616461F4674
:1001D0002A4621466E4805F089FB2A4621466B488F
:1001E00005F084FB2946204605F033FF0020BDE8DA
:1001F000F08110B54FF4E130634948600020087287
:1002000008704881487040F22B215F480C3017F08D
:10021000FDFDAFF24F005C49C1F83802084605F019
:1002200091FA4FF4E13059494860002008720120EA
:10023000087000204881487040F22B2153480C3050
:1002400017F0E4FDAFF2B1005049C1F8380208469A
:1002500005F078FA4FF4E1304D494860002008720B
:100260000320087000204881487040F22B21484844
:100270000C3017F0CBFDAFF213104549C1F838022E
:10028000084605F05FFA10BD10B5424842490860C3
:10029000C02042498877A8214048C1771F2180F8B3
:1002A00020106C2180F821103B49002016F0C5FA7F
:1002B0000121002016F0BAFA39A13B4818F096F94E
:1002C000394817F0D6FD3949087039A13C4818F073
:1002D0008DF93B4817F0CDFD3A4908703349324853
:1002E00012F00EFE3749364812F016FE364813F06B
:1002F000CEFF10BD002011F0F0FA06F03CFE05F034
:1003000005F801F0BBFC4FF4A06001F097FE40F24D
:10031000CF2140F2E73001F01FFAFFF7B5FFFFF7FA
:1003200068FF08F04FFA17F000FD01F0B2F940F253
:100330007121042001F056FE0A2224A1144805F080
:10034000D5FA322005F01BF800221146104805F0BE
:100350003AFB322005F013F8002211460C4805F054
:1003600032FB0D221CA10A4805F0C0FA0AE006F093
:1003700078FE0121084603F0C8FA00F0040008B92D
:1003800000BFFEE7F3E70000B42200203C1E00207F
:1003900078200020C0A81F6C00000020F02400205E
:1003A0006162636465666700DC070020040000206A
:1003B0003139322E3136382E33312E3435000000AB
:1003C000DB080020050000200600002041542B49D6
:1003D0005053484F573D000041542B52454D4F5408
:1003E0004549503D00000000704700BFFEE700BFD8
:1003F000FEE700BFFEE700BFFEE7704770477047AB
:10040000704700000CB5002001900090584800682B
:1004100040F480305649086000BF5548006800F439
:10042000003000900198401C0190009818B9019884
:10043000B0F5A06FF1D14E48006800F4003010B163
:100440000120009001E000200090009801285DD17B
:100450004848006840F010004649086008460068B7
:1004600020F0030008600846006840F002000860C1
:100470003F4840683E494860084640684860084632
:10048000406840F4806048600846C06A3A490840C5
:100490003749C8620846C06A384908433449C862C7
:1004A0000846006840F08060086000BF304800687F
:1004B00000F000600028F9D02D48406820F47C103E
:1004C0002B4948600846406840F4E81048600846F8
:1004D000006840F08070086000BF2548006800F0A8
:1004E00000700028F9D02248406820F0030020491D
:1004F00048600846406840F00200486000BF1C4861
:10050000406800F00C000828F9D101E000BFFEE7C8
:100510000CBD10B5FFF776FF10BD10B5144800688C
:1005200040F001001249086008464068144908403C
:100530000F49486008460068124908400C490860A5
:100540000846006820F4802008600846406820F4CF
:10055000FE0048600846006820F0A05008604FF494
:100560007F0088600020C862FFF7D3FF10BD000045
:10057000001002400020024000F0FEFF440601008F
:100580000000FFF0FFFFF6FE10B58AB00446FA48FF
:1005900090F8221090F823000144F74890F82400C6
:1005A0000144F54890F82500084480B3F24890F8DB
:1005B0005900F14991F85810EF4A92F85720EE4B44
:1005C00093F85630CDE90632CDE90810EA4890F8A4
:1005D0005D1090F85C00E84A92F85B20E64B93F8D7
:1005E0005A30CDE90232CDE90401E34890F8250004
:1005F000E14991F82410CDE90010DF4890F823304C
:1006000090F82220DDA1204617F0F0FF04E0FFE77C
:10061000E4A1204617F0EAFF204617F02AFC80B23A
:100620000AB010BD10B58AB00446E8488178C07899
:100630000144E64800790144E4484079084440B365
:10064000E248407EE149097EE04AD27DDF4B9B7D56
:10065000CDE90632CDE90810DC4890F82D1090F86D
:100660002C00DA4A92F82B20D84B93F82A30CDE9A7
:100670000232CDE90401D5484079D4490979CDE960
:100680000010D248C3788278BCA1204617F0AEFF94
:1006900003E0C4A1204617F0A9FF204617F0E9FBAC
:1006A00080B20AB010BD10B50246012000E05043F0
:1006B0000B1EA1F10104E1B2F9D110BD2DE9F14FFA
:1006C0008EB0C348C06800285ED0C14800690028C9
:1006D0005AD0BF48817D0A20FFF7E5FFBC49C968B1
:1006E000B1FBF0F4BA48817D0A20FFF7DCFFB8497E
:1006F000C968B1FBF0F200FB1216B548C17D0A20B3
:10070000FFF7D1FFB2490969B1FBF0F5B048C17DEF
:100710000A20FFF7C8FFAE490969B1FBF0F200FB00
:1007200012176420B5FBF0F100FB1158B5FBF0F98E
:10073000B4FBF0F100FB114AB4FBF0FBA5480178D3
:10074000A348007AA24A527DCDE90A72CDE90C0194
:100750009F48007DCDE90898CDE906609C488079E6
:100760009B494979CDE904BACDE90210984800794E
:100770009749C978CDE9001095488378028896A1F9
:100780000E9817F033FF18E0924800789049097AE4
:100790008F4A92798E4B5B79CDE90232CDE9041014
:1007A0008B4800798A49C978CDE900108848837858
:1007B000028897A10E9817F019FF0E9817F059FBB1
:1007C00080B20FB0BDE8F08F30B587B00446002589
:1007D0007E4890F86E007D4991F86D107B4A92F842
:1007E0006C207A4B93F86B30CDE90232CDE90410DE
:1007F000764890F86A007549B1F86810CDE90010A4
:100800007248407808B1012000E0002000F10A039E
:100810006E48027888A1204617F0E8FE204617F0BF
:1008200028FBC5B2694890F83E1090F83F0001449B
:10083000664890F840000144644890F8410008443C
:1008400088B1624890F84100604991F84010CDE9C4
:1008500000105E4991F83F3091F83E2060194DA19B
:1008600017F0C4FE03E060197AA117F0BFFE20461E
:1008700017F0FFFAC5B27B4890F86E2090F86D0033
:10088000784991F86C10774B93F86B30CDE90231D1
:10089000CDE90402734890F86A007249B1F8681013
:1008A000CDE900106F49497809B1012100E000212C
:1008B00001F114036B490A7860195FA117F096FEE5
:1008C000204617F0D6FA80B207B030BD10B586B01A
:1008D0000446404880793F4949793E4A12793D4B68
:1008E000DB78CDE90132CDE903103A4880780090F9
:1008F0003848437802785CA1204617F077FE2046FE
:1009000017F0B7FA80B206B010BDF0B585B0064654
:100910005B4C0027002529E0594800EB051420789E
:1009200061780844A1780844E1780844E0B154486B
:1009300000EB0510C068524901EB05118968504A67
:1009400002EB05125268E378CDE90132CDE90310DC
:10095000A078009063782278F0194AA117F046FE3B
:10096000304617F086FA87B2681CC5B2082DD3DB73
:10097000384605B0F0BD0000F02400202425642E88
:1009800025642E25642E25642425642E25642E25B9
:10099000642E25642425642E25642E25642E25646A
:1009A0000000000024E69A82E697A0E695B0E68D66
:1009B000AE24E69A82E697A0E695B0E68DAE24E6F0
:1009C0009A82E697A0E695B0E68DAE002C1D002039
:1009D000AC250020180100202425642F25642F2534
:1009E000642D2D25643A25643A2564242564C2B01B
:1009F00025642E25642725632C20202564C2B0257C
:100A0000642E2564272563242564242564000000C2
:100A10002425642F25642F25642D2D25643A256413
:100A20003A256424E69A82E697A0E695B0E68DAE74
:100A300024256424256400002425642425642425B9
:100A4000642F25642F25642D2D25643A25643A25CD
:100A50006400000024E69A82E697A0E695B0E68D51
:100A6000AE000000B41D0020242564242564242544
:100A7000642425642425642425642425640000005E
:100A80002C1A00202425642E25642E25642E25642E
:100A9000242564242564242564000000F0B585B075
:100AA0000646FE4C002708252EE0FC48803800EB67
:100AB0000514207861780844A1780844E178084456
:100AC00000B3F648803800EB0510C068F349803960
:100AD00001EB05118968F14A803A02EB0512526870
:100AE000E378CDE90132CDE90310A0780090637876
:100AF0002278F019AFF2740117F078FD304617F044
:100B0000B8F987B2681CC5B2102DCEDB384605B0E7
:100B1000F0BDF0B585B00646E14C002700252AE07F
:100B2000DF4800EB0514207861780844A178084478
:100B3000E1780844E8B1DA4800EB0510C068D8490C
:100B400001EB05118968D64A02EB05125268E37879
:100B5000CDE90132CDE90310A078009063782278C6
:100B6000F019AFF2E00117F041FD304617F081F9BE
:100B700087B2681CC5B2082DD2DB384605B0F0BD7F
:100B8000F0B585B00646C64C8034002708252AE01B
:100B9000C34800EB0514207861780844A178084424
:100BA000E1780844E8B1BE4800EB0510C068BC49D4
:100BB00001EB05118968BA4A02EB05125268E37825
:100BC000CDE90132CDE90310A07800906378227856
:100BD000F019AFF2501117F009FD304617F049F93E
:100BE00087B2681CC5B2102DD2DB384605B0F0BD07
:100BF000F0B585B00646AB4C002700252AE0A94891
:100C000000EB0514207861780844A1780844E17865
:100C10000844E8B1A34800EB0510C068A14901EB06
:100C2000051189689F4A02EB05125268E378CDE905
:100C30000132CDE90310A078009063782278F01992
:100C4000AFF2C01117F0D2FC304617F012F987B29C
:100C5000681CC5B2082DD2DB384605B0F0BDF0B532
:100C600085B006468F4C8034002708252AE08D4841
:100C700000EB0514207861780844A1780844E178F5
:100C80000844E8B1874800EB0510C068854901EBCE
:100C900005118968834A02EB05125268E378CDE9B1
:100CA0000132CDE90310A078009063782278F01922
:100CB000AFF2302117F09AFC304617F0DAF887B21D
:100CC000681CC5B2102DD2DB384605B0F0BDF0B5BA
:100CD000A3B005460E4617461C46206800783038FB
:100CE0006421484321684978303901EB810100EBE8
:100CF000410120688078303808446B4981F822002F
:100D00002068C07830386421484321680979303937
:100D100001EB810100EB4101206840793038084443
:100D2000C1B2614880F8231020688079303864218E
:100D300048432168C979303901EB810100EB410159
:100D40002068007A30380844C1B2574880F824102F
:100D50002068407A3038642148432168897A3039E4
:100D600001EB810100EB41012068C07A3038084472
:100D7000C1B24D4880F82510606800783038642191
:100D8000484361684978303901EB810100EB41014A
:100D90006068807830380844434981F85A006068B8
:100DA000C07830386421484361680979303901EBF3
:100DB000810100EB41016068407930380844C1B2DC
:100DC000394880F85B106068807930386421484386
:100DD0006168C979303901EB810100EB410160683C
:100DE000007A30380844C1B22F4880F85C1060683F
:100DF000407A3038642148436168897A303901EBA0
:100E0000810100EB41016068C07A30380844C1B20A
:100E1000254880F85D10A068007830386421484388
:100E2000A1684978303901EB810100EB4101A068EC
:100E30008078303808441C4981F85600A068C07892
:100E4000303864214843A1680979303901EB8101C8
:100E500000EB4101A068407930380844C1B2124823
:100E600080F85710A0688079303864214843A16821
:100E7000C979303901EB810100EB4101A068007AAA
:100E800030380844C1B2084880F85810A068407A49
:100E9000303864214843A168897A07E0AC1A002001
:100EA0002C1B00202C1C0020F0240020303901EBEA
:100EB000810100EB4101A068C07A30380844C1B21A
:100EC000FE4880F85910022200F12201FC4801F08E
:100ED0000EF80222F9495A31FA4801F008F80222C4
:100EE000F6495631F84801F002F8F44890F8250028
:100EF0000106F24890F8240041EA0041EF4890F8DA
:100F0000230041EA0020ED4991F822100843EF49FF
:100F10004860EA4890F859000106E84890F85800FF
:100F200041EA0041E54890F8570041EA0020E349D2
:100F300091F856100843E5498860E04890F85D0054
:100F40000106DE4890F85C0041EA0041DB4890F879
:100F50005B0041EA0020D94991F85A100843DB4967
:100F6000C860D64890F82500D44991F82410CDE9FE
:100F70000010D24890F8233090F82220D4A12630D7
:100F800017F034FBCD4890F85900CC4991F858102F
:100F9000CDE90010C94890F8573090F85620CCA100
:100FA000363017F023FBC54890F85D00C34991F82F
:100FB0005C10CDE90010C14890F85B3090F85A20E1
:100FC000C3A1463017F012FBBC4890F85D00BB4946
:100FD00091F85C10B94A92F85B20B84B93F85A30FC
:100FE000CDE90632CDE90810B44890F8592090F8C0
:100FF0005800B24991F85710B04B93F85630CDE9EC
:101000000231CDE90402AD4890F82500AB4991F8D2
:101010002410CDE90010A94890F8233090F8222040
:10102000B0A10AA817F0E2FA64220AA9B94804F0AC
:101030005DFCB9A023B0F0BD2DE9F041A4B0064697
:101040000F4690461C46206800783038642148439B
:1010500021684978303901EB810100EB41012068BA
:10106000807830380844AF4988702068C0783038BC
:101070006421484321680979303901EB810100EB93
:1010800041012068407930380844C1B2A548C17098
:10109000206880793038642148432168C979303923
:1010A00001EB810100EB41012068007A30380844EF
:1010B000C1B29C4801712068407A303864214843AD
:1010C0002168897A303901EB810100EB4101206808
:1010D000C07A30380844C1B29248417160680078E3
:1010E00030386421484361684978303901EB810127
:1010F00000EB41016068807830380844894981F804
:101100002A006068C07830386421484361680979F2
:10111000303901EB810100EB4101606840793038E2
:101120000844C1B27F4880F82B106068807930385D
:10113000642148436168C979303901EB810100EBD2
:1011400041016068007A30380844C1B2754880F8BF
:101150002C106068407A3038642148436168897A8D
:10116000303901EB810100EB41016068C07A303811
:101170000844C1B26B4880F82D10A0680078303860
:1011800064214843A1684978303901EB810100EBC3
:101190004101A06880783038084462498875A068A9
:1011A000C078303864214843A1680979303901EBAF
:1011B000810100EB4101A068407930380844C1B298
:1011C0005848C175A0688079303864214843A168C7
:1011D000C979303901EB810100EB4101A068007A47
:1011E00030380844C1B24F480176A068407A3038A0
:1011F00064214843A168897A303901EB810100EB11
:101200004101A068C07A30380844C1B245484176EF
:1012100090F82D00434991F82C10424A92F82B2067
:10122000404B93F82A30CDE90632CDE908103D480D
:10123000417E007E3B4AD27D3A4B9B7DCDE9023216
:10124000CDE904013748407936490979CDE90010E4
:101250003448C378827834A10BA817F0C7F90BA8DB
:1012600016F007FE85B22A460BA92A4804F03EFB79
:101270002C4890F82D002B4991F82C2091F82B1038
:10128000284B93F82A30CDE90631CDE908202548CE
:10129000407E2449097E234AD27D224B9B7DCDE9A5
:1012A0000232CDE904101F4840791E490979CDE981
:1012B00000101C48C37882784EE00000F024002023
:1012C0001050030810510308105203085425002041
:1012D000253033642E253033642E253033642E259B
:1012E0003033640041542B534E424B3D25642C2532
:1012F000642C25642C25642F25642C25642C2564FE
:101300002C25642F25642C25642C25642C25642F22
:101310000D0A0000B42200202F7365742E736874C8
:101320006D6C00002C1D002041542B5054424B3D4D
:1013300025642C25642C25642C25642F25642C25FC
:10134000642C25642C25642F25642C25642C2564AD
:101350002C25642F0D0A00008CA10BA817F046F96C
:101360000BA816F086FD85B22A460BA9934804F017
:10137000BDFAAFF25C0024B0BDE8F0812DE9F04386
:1013800085B00746884691461D46002600242868F9
:1013900016F0A0FD064600BF0DE00A2096FBF0F116
:1013A00000FB1160C4F10601854A50540A2096FBE7
:1013B000F0F6601CC4B2072CEFDB82A1684617F080
:1013C00015F97F4800788DF80B007D4840788DF83E
:1013D0000C007B4880788DF80D007948C0788DF836
:1013E0000E00774800798DF80F00754840798DF828
:1013F0001000734880798DF8110055208DF8120087
:1014000013226946724804F071FAAFF2F40005B095
:10141000BDE8F0832DE9F04105460E4617461C460F
:10142000206816F057FD6B4908700846007828B10F
:101430000B2269A1614804F059FA04E00A2269A16B
:101440005E4804F053FAAFF23010BDE8F0812DE9A8
:10145000F04105460E4617461C46206816F03AFD38
:1014600063490870AFF25010BDE8F0812DE9F041FA
:1014700090B006460F4690461C46206800783038EB
:101480006421484321684978303901EB810100EB40
:10149000410120688078303808444E4981F83E0088
:1014A0002068C07830386421484321680979303990
:1014B00001EB810100EB410120684079303808449C
:1014C000C1B2444880F83F102068807930386421E8
:1014D00048432168C979303901EB810100EB4101B2
:1014E0002068007A30380844C1B23A4880F8401089
:1014F0002068407A3038642148432168897A30393D
:1015000001EB810100EB41012068C07A30380844CA
:10151000C1B2304880F8411090F841002D4991F84F
:101520004010CDE900102B4890F83F3090F83E2055
:1015300030A103A817F05AF8264890F84100254931
:1015400091F84010CDE90010224890F83F3090F813
:101550003E20AFF28421423017F048F803A816F07D
:1015600088FC85B22A4603A9144804F0BFF903A8F1
:1015700016F07FFC85B22A4603A9254804F0B6F987
:10158000AFF26C2010B0BDE8F081000041542B5345
:101590005054503D25642C25642C25642C25642F43
:1015A00025642C25642C25642C25642F25642C258A
:1015B000642C25642C25642F0D0A0000782000205F
:1015C000180100202454494D45534F5552434500BE
:1015D000B42200202C1D0020505450204D61737403
:1015E0006572000050545020536C61766500000015
:1015F000B41D002041542B554450543D25642C25E6
:10160000642C25642C25642F383038302F000000DE
:101610003C1E002010B504464FF4E16003F036F89C
:101620008A494018206040F20C7003F02FF8400007
:10163000606010BDF0B50446DDE90556881E011E48
:1016400001DC0C31641E6420B4FBF0F0C0EB9400AC
:101650004FF4C877B4FBF7F7074440F26F104843E4
:101660004FF00C0C90FBFCF03844871840F26D10E2
:1016700000FB0470764FC01B00EB400003EBC00082
:10168000C0EB001005EB8000C0EB001006EB800003
:10169000F0BD00B589B00121022001F005F901215A
:1016A000112001F0F4F801216A4800F066FE4020A4
:1016B000ADF8100018208DF8130003208DF81200EB
:1016C00004A9654800F088FD4FF6FF70ADF81C00D6
:1016D0000020ADF81800ADF81E00ADF81A008DF826
:1016E000200006A95D4801F099F901215B4801F04D
:1016F00021FD0020ADF80400ADF806000120ADF892
:1017000008000020ADF80A00ADF80C0001A953480C
:1017100001F066FB2021514801F087FE01214F486E
:1017200001F008FC012202214C4801F01EFC0221BC
:101730004A4801F0D9FE1D208DF8140001208DF8D3
:10174000150002208DF8160001208DF8170005A85D
:1017500000F079FC09B000BD7FB504460D460121BB
:10176000042001F0A1F8ADF804500020ADF8060007
:10177000ADF80840ADF80A0001A9394801F04EF96A
:1017800001221146364801F0F0FB0121344801F0F6
:10179000D1FB1E208DF8000001208DF801000320F0
:1017A0008DF8020001208DF80300684600F04BFC24
:1017B0007FBD2DE9F0410221284801F084FE002878
:1017C0002FD028480068401C26490860264816F09B
:1017D00052F82448006825490860002048602248E3
:1017E000406823494860486816F009FD0446002215
:1017F000204B16F059FD0DD21D49486816F0FFFC2C
:10180000064600221C4B16F013FC044616F015FD8C
:1018100017494860164815F024FF02210F4801F0CF
:1018200063FEBDE8F08110B501210D4801F04BFECB
:10183000012806D1114800680A301049086011F0EB
:1018400046FB0121064801F04FFE10BD807EAA83B1
:101850008BFA0A00000C1A0000100140000400403E
:1018600000080040BC0000201800002020000020DC
:101870001000002065CDBD4165CDCD41E0000020C8
:1018800010B5B0B0012000F0CEFD4FF4004000F0E4
:10189000A0FE012000F0A6FE00BF3D2000F024FEC7
:1018A0000028FAD00B2001F039F801F0F3FF02F024
:1018B00036FD00BF02F03AFD0128FBD001A802F07E
:1018C00077F901200190002008904FF400700B90F0
:1018D00000200C900F9012901490159016904FF4D9
:1018E00080600A90002021904FF00070229000113B
:1018F000249000202690279004202990C0052A904B
:1019000040122B9080012C9040122D9040002F907F
:10191000012101A802F02AF8C4B2012C03D101214F
:10192000C84802F03BFD204630B010BD08B53D2050
:101930008DF8000000208DF801008DF802000120D4
:101940008DF80300684600F07EFB08BD38B5002422
:1019500001214FF4E03000F08DFF01217D2000F0E7
:1019600096FFFFF7E3FF0420ADF8000003208DF899
:10197000020018208DF803006946B34800F02CFCE3
:101980000620ADF8000003208DF8020018208DF825
:1019900003006946AD4800F01FFC43F62010ADF887
:1019A000000003208DF8020018208DF8030069461E
:1019B000A74800F011FC01214FF0201000F0DDFCE1
:1019C0000B20ADF8000003208DF8020004208DF8F4
:1019D000030069469C4800F0FFFB4FF48060ADF8BF
:1019E000000003208DF8020004208DF803006946F2
:1019F000974800F0F1FB0820ADF8000003208DF8B7
:101A0000020004208DF803006946904800F0E4FBD2
:101A10004FF4F850ADF8000003208DF802000420C8
:101A20008DF8030069468B4800F0D6FB4FF48070B8
:101A3000ADF8000003208DF8020018208DF8030097
:101A40006946814800F0C8FBFFF71AFF04460CB94D
:101A5000012038BD0020FCE710B51F21002001F057
:101A600054FFC0F38204204610BD10B501E005F01C
:101A7000F3FA02F013FA0028F9D1402002F077FCC3
:101A80004FF4803002F073FC10BD3FB500210022FE
:101A900000920192029203926F4A1268126802F059
:101AA000004282B1002200926C4A526902F0800228
:101AB00022B18022694B5A6100229A609DE83C0065
:101AC00080E83C003FBD644A1268128802F400427C
:101AD000B2B9614A1268128802F4807282B15E4A19
:101AE0001268128802F4007252B15B4A12681268DE
:101AF000C2F30D42111F584A12689268019200E029
:101B000000210091544A12680292534A1268D26826
:101B1000514B1A609DE83C0080E83C0000BFD1E7D3
:101B200001464F480068006800F0004008B10020FE
:101B30007047C1F30C004A4A126850604848006878
:101B4000006840F04050464A1268106044480068FF
:101B5000006840F00040424A126810603F48406907
:101B600000F0040020B104203C4A50610020506085
:101B70003B480068C0683A4A10600120D8E73848FE
:101B800000688068704710B53648016800200FF083
:101B90005AFF3548016800200FF055FF33480168AF
:101BA00000200FF050FF3248016800200FF04BFF7B
:101BB0003048016800200FF046FF2F4801680020E0
:101BC0000FF041FF10BD10B5402100200FF04BFF7A
:101BD00024490860602100200FF045FF2249086079
:101BE000402100200FF03FFF2149086060210020C4
:101BF0000FF039FF1D4908604FF4BE5100200FF06F
:101C000032FF1C49086042F2A03100200FF02BFF88
:101C1000194908601348006870B11348006858B14A
:101C20001448006840B10846006828B110480068B0
:101C300010B10E48006818B9FFF7A5FF012010BDCC
:101C40000020FCE7400001000008014000100140B6
:101C5000000C01400014014084000020009002406C
:101C600080000020280000202C0000203C000020E4
:101C700038000020300000203400002008B54FF468
:101C80000070ADF8000010208DF8030003208DF8DF
:101C900002006946044800F09FFA4FF400710248C0
:101CA00000F047FB08BD0000000C014000B587B004
:101CB0000121092000F0EBFD0121480500F0F4FDB1
:101CC0000020ADF810004FF48060ADF81600000160
:101CD000ADF81800644803904BF6FF70ADF81200A1
:101CE0007E20ADF8140003A9604803F016F9C02067
:101CF000ADF8080003208DF80A001C208DF80B00B9
:101D000002A95B4800F068FA0121584803F083F902
:101D10001F208DF8040002208DF805008DF80600C4
:101D200001208DF8070001A800F08DF920208DF822
:101D3000040002208DF8050003208DF80600012024
:101D40008DF8070001A800F07EF901224FF4E06150
:101D5000464803F0CBF907B000BD30B5434A143212
:101D60001088121D118801F00102002A46D100F0EE
:101D70000202022A05D100223E4B1A703E4B1A7015
:101D80003CE000F01002102A09D1384A128842F0D3
:101D90000102364B1A800122384B1A702EE000F0F7
:101DA0008002802A0BD1344A13781278521C324CAC
:101DB0002270334AD25C2D4B10331A801EE000F0A3
:101DC0004002402A0CD1294A10321288D3B2294A43
:101DD00014781278521C274D2A702A4A13550DE0A8
:101DE00000F48062B2F5806F08D1204A1432128864
:101DF0004FF6FF531A401D4B14331A8030BD70B597
:101E00001A4814300488001D05881F49174803F03C
:101E10003CFA10BB1D49154803F037FAE8B91C49D4
:101E2000124803F032FAC0B91A49104803F02DFAEB
:101E300098B919490D4803F028FA20B116490B4802
:101E400003F036FA09E01549084803F01EFA20B9F4
:101E50004FF00121054803F018FA0448008840F0CB
:101E600001000249088070BD801A0600005400403D
:101E7000000C0140680000206A000020690000207A
:101E8000020A0020DA090020008000010040000161
:101E90000010000100080001000400010002000120
:101EA0000146088870472DE9F04105460E46174661
:101EB000002407E036F81410284602F0A9FEAD1CF5
:101EC000601C84B2BC42F5DBBDE8F08130B503464E
:101ED0000C461546002207E01846FFF7E1FF24F8FC
:101EE00012009B1C501C82B2AA42F5DB30BD2DE9CA
:101EF000F05F80468A461746B8F1006F02D3374834
:101F0000804501D3BDE8F09F02F073FDA8F1006B9E
:101F10004FEADB25CBF34909C9F58064A74200DC11
:101F20003C464DE04FF0006101EBC5204A142C49BE
:101F3000FFF7CCFF00260BE009EB0600284931F83B
:101F400010004FF6FF71884200D003E0701C86B28B
:101F5000A642F1DB00BFA6421BDA4FF0006101EBA5
:101F6000C52002F08DFD002608E03AF8160006EBC9
:101F700009011B4A22F81100701C86B2A642F4DB4C
:101F80004FF0006101EBC5204A141549FFF78BFFA4
:101F900004E0224651464046FFF785FFA74200D1A4
:101FA0000FE06D1C4FF000090AEB440AA044381BF7
:101FB00087B2B7F5806F02DD4FF4806400E03C46E5
:101FC000B0E700BF02F01BFD00BF9BE713B504465E
:101FD000012201A92046FFF78AFF1CBD000004086A
:101FE0002A0A002070B505460C4645F2555003F00C
:101FF0006DF9284603F06DF9204603F06DF903F002
:102000006EF903F071F970BD4AF6AA200149086023
:1020100070470000003000400648804706480047EF
:10202000FEE7FEE7FEE7FEE7FEE7FEE7FEE7FEE788
:10203000FEE7FEE71B050008510100083149014396
:10204000314A1160704770B5002100230F22C47817
:1020500004B32D4C246804F4E064C4F5E064210A60
:10206000C1F10403CA40447804FA03F184781440AF
:1020700021430901254C0678A155047804F01F0579
:102080000124AC4005786D11AD0005F1E025C5F8DF
:10209000004109E0047804F01F050124AC401C4D08
:1020A0000678761145F8264070BD1A4A0A40024368
:1020B000154B1B1F1A60704739B1134A121D126865
:1020C0000243114B1B1D1A6006E00F4A121D1268D5
:1020D00082430D4B1B1D1A607047042808D14FF036
:1020E000E021096941F004014FF0E022116107E0AD
:1020F0004FF0E021096921F004014FF0E022116165
:10210000704700000000FA050CED00E000E400E07C
:1021100080E100E080FFFF1F10B50446C448844200
:1021200008D10121042000F0D9FB0021042000F097
:10213000D5FB46E0BF48844208D10121082000F0C9
:10214000CDFB0021082000F0C9FB3AE0BA488442E8
:1021500008D10121102000F0C1FB0021102000F067
:10216000BDFB2EE0B548844208D10121202000F0BB
:10217000B5FB0021202000F0B1FB22E0B0488442F2
:1021800008D10121402000F0A9FB0021402000F0EF
:10219000A5FB16E0AB48844208D10121802000F065
:1021A0009DFB0021802000F099FB0AE0A6488442B4
:1021B00007D10121801500F091FB0021A01500F04E
:1021C0008DFB10BD10B50121084600F087FB0021F2
:1021D000012000F083FB10BD2DE9F04102460025EF
:1021E0000026002000230024002791F803C00CF0F3
:1021F0000F0591F803C00CF0100CBCF1000F03D0D8
:1022000091F802C04CEA050591F800C0BCF1000F3E
:1022100031D0146800202BE04FF0010C0CFA00F3D1
:10222000B1F800C00CEA03069E4220D183004FF0B3
:102230000F0C0CFA03F7BC4305FA03FC4CEA040448
:1022400091F803C0BCF1280F06D14FF0010C0CFA35
:1022500000FCC2F814C00AE091F803C0BCF1480FBA
:1022600005D14FF0010C0CFA00FCC2F810C0401C64
:102270000828D1D31460B1F800C0BCF1FF0F34DDE1
:10228000546800202EE000F1080C4FF0010808FA15
:102290000CF3B1F800C00CEA03069E4221D1830082
:1022A0004FF00F0C0CFA03F7BC4305FA03FC4CEAA1
:1022B000040491F803C0BCF1280F05D100F1080C0B
:1022C00008FA0CF8C2F8148091F803C0BCF1480F6A
:1022D00007D100F1080C4FF0010808FA0CF8C2F819
:1022E0001080401C0828CED35460BDE8F0814FF622
:1022F000FF710180022181700421C1707047024684
:10230000002093680B400BB1012000E000207047D3
:102310000146886880B2704702460020D3680B40AF
:102320000BB1012000E0002070470146C86880B270
:10233000704701617047416170470AB1016100E077
:1023400041617047C16070474FF480320A43826137
:1023500081618261826982697047024600203B4B3D
:1023600018684FF68073184040EA02100843374B54
:10237000186070473649C8617047F0B50A460023B7
:10238000002400210025314E7168C0F3034583B25B
:1023900000F44016B6F5401F08D121F070612B4EB5
:1023A000766826F07066294F7E6012E000F4801691
:1023B000B6F5801F06D1032606FA05F4A14341F0C5
:1023C000706106E0460D360103FA06F6B14341F0AE
:1023D000706122B1460D360103FA06F631431B4EF9
:1023E0007160F0BD30B500228B071C0F0F2303FA7C
:1023F00004F2164B08338C1053F824309343134CDB
:1024000008348D1044F8253023468C1053F82430BE
:102410008C07240F00FA04F423430C4C08348D106D
:1024200044F8253030BD0A49DC31086070470000AF
:1024300000080140000C0140001001400014014060
:1024400000180140001C0140002001400000014034
:1024500000002042FB48006840F00100F949086094
:1024600008464068F8490840F64948600846006850
:10247000F6490840F34908600846006820F48020C7
:1024800008600846406820F4FE004860084600687E
:1024900020F0A05008604FF47F0088600020C862E0
:1024A0007047E849096821F48031E64A1160114615
:1024B000096821F480211160B0F5803F03D0B0F5A8
:1024C000802F0ED106E0DF49096841F48031DD4AF2
:1024D000116007E0DB49096841F4A021D94A116085
:1024E00000E000BF00BF704710B501460022002386
:1024F00000204A11012A02D1D24C236806E0022AA8
:1025000002D1D04C236A01E0CE4C636A01F01F0275
:10251000012494401C400CB1012000E0002010BDBB
:1025200038B5002000900024002500BF3120FFF7BF
:10253000DBFF05460098401C00900098B0F5A06FA6
:1025400001D0002DF2D03120FFF7CEFF08B10124D9
:1025500000E00024204638BD01460020B94A10683A
:1025600020F0F80040EAC10010607047B8490860E8
:10257000704702460020B34B586820F4741042EABA
:1025800001031843AF4B58607047B1490866704764
:1025900002460020AB4BD86AAE4B184042EA01031A
:1025A0001843A84BD862704701460020A54AD06A5C
:1025B00020F0F0000843D062704701460020A14A95
:1025C000D06A20F470600843D0627047A0498866E2
:1025D0007047014600209B4AD06A20F470400843AF
:1025E000D06270479A490867704701460020954AB3
:1025F000506820F0030008435060704791484068DD
:1026000000F00C007047014600208E4A506820F010
:10261000F00008435060704701460020894A506826
:1026200020F4E06008435060704701460020854A6E
:10263000506820F4605040EAC1005060704729B1F2
:10264000804A527A02437F4B5A7204E07D4A527AA2
:1026500082437C4B5A7270477D49D831086070477D
:1026600001460020774A506820F4404008435060FB
:1026700070477949086070477749091D08607047BD
:102680000021704A203211706E4A82F82010012811
:1026900002D004280AD104E001216A4A20321170D4
:1026A00005E00521674A2032117000E000BF00BF3D
:1026B00070476A49086070476249096A0143614A84
:1026C0001162704765494439086070472DE9F0414F
:1026D00000210022002500230026002400278C462C
:1026E000DFF86081D8F8048008F00C0121B10429DA
:1026F00007D0082959D109E0DFF86481C0F80080CB
:1027000058E0DFF86081C0F8008053E0DFF83481E2
:10271000D8F8048008F47012DFF82881D8F8048013
:1027200008F48035920C0D2A01D0921C00E006229C
:1027300035B9DFF8348102FB08F8C0F8008033E0D7
:10274000DFF80081D8F82C8008F48036DFF8F480B8
:10275000D8F82C8008F00F0808F1010446B9DFF81A
:102760000481B8FBF4F808FB02F8C0F800801BE015
:10277000DFF8D080D8F82C80C8F3031808F10107DF
:10278000DFF8C080D8F82C80C8F3032808F1020CC9
:10279000DFF8D080B8FBF7F808FB0CF8B8FBF4F8CA
:1027A00008FB02F8C0F8008004E0DFF8B480C0F84D
:1027B000008000BF00BFDFF88C80D8F8048008F0EC
:1027C000F0010909DFF8A48018F80130D0F8008082
:1027D00028FA03F8C0F80480DFF86880D8F804808D
:1027E00008F4E061090ADFF8848018F80130D0F8B5
:1027F000048028FA03F8C0F80880DFF84880D8F889
:10280000048008F46051C90ADFF8608018F80130CC
:10281000D0F8048028FA03F8C0F80C80DFF8248090
:10282000D8F8048008F44041890BDFF8448018F898
:102830000130D0F80C80B8FBF3F8C0F81080BDE888
:10284000F0810000001002400000FFF0FFFFF6FEE4
:1028500000004242F0FFFEFFC405424280044242B3
:1028600000127A0040787D0100093D006B000020D5
:102870007B00002029B1354A52690243334B5A612B
:1028800004E0324A52698243304B5A61704729B1A1
:102890002E4A926902432D4B9A6104E02B4A9269B9
:1028A00082432A4B9A61704729B1284AD269024370
:1028B000264BDA6104E0254AD2698243234BDA6170
:1028C000704729B1214A926A0243204B9A6204E080
:1028D0001E4A926A82431D4B9A62704729B11B4A75
:1028E000D2680243194BDA6004E0184AD268824386
:1028F000164BDA60704729B1144A12690243134B30
:102900001A6104E0114A12698243104B1A61704740
:102910000F49086070470F49C86470470B49C87178
:1029200070470A48406A40F0807008494862704722
:1029300001460020054A92680A400AB1012000E0E1
:102940000020704701498872704700000010024063
:10295000400442420000424210B50446FE48844210
:1029600008D10121C014FFF7B9FF0021E014FFF7DF
:10297000B5FF52E0B4F1804F08D101210846FFF7BE
:10298000BAFF00210120FFF7B6FF46E0F34884427A
:1029900008D101210220FFF7AEFF00210220FFF73E
:1029A000AAFF3AE0EE48844208D101210420FFF753
:1029B000A2FF00210420FFF79EFF2EE0E948844299
:1029C00008D101210820FFF796FF00210820FFF71A
:1029D00092FF22E0E448844208D101211020FFF751
:1029E0008AFF00211020FFF786FF16E0DF488442AF
:1029F00008D101212020FFF77EFF00212020FFF7D2
:102A00007AFF0AE0DA48844207D101214014FFF737
:102A100065FF00216014FFF761FF10BD028802F01E
:102A20008F020280CA884B881A4303881A430280A7
:102A30008A8882850A880285C74A904202D0CC4A99
:102A4000904201D10A7A028601228282704770B5D3
:102A5000002400220023058C4FF6FE7635400584C5
:102A6000028C8388048B4FF68F752C400D882C4385
:102A7000751E2A400D892A434D882A43CD888586B4
:102A8000B54DA84202D0BA4DA84213D14FF6F77502
:102A90002A404D892A434FF6FB752A408D882A43E8
:102AA00047F6FF652B4047F6FF552B408D892B439A
:102AB000CD892B4383800483028470BD70B50024CC
:102AC00000220023058C4FF6EF7635400584028CFA
:102AD0008388048B48F6FF752C400D884FF6FF76EF
:102AE00006EA05252C434FF6DF752A400D8906EAD4
:102AF00005152A434D8806EA05152A43CD88058722
:102B0000954DA84202D09A4DA8421DD14FF67F752F
:102B10002A404D894FF6FF7606EA05152A434FF6FF
:102B2000BF752A408D8806EA05152A4347F6FF350A
:102B30002B4047F2FF752B408D8906EA85052B4314
:102B4000CD8906EA85052B4383800483028470BD0A
:102B500070B5002400220023058C4FF6FF66354037
:102B60000584028C8388848B4FF68F752C400D88EA
:102B70002C434FF6FF552A400D894FF6FF7606EAA3
:102B800005252A434D8806EA05252A43CD888587F1
:102B9000714DA84202D0764DA8421DD14FF2FF756B
:102BA0002A404D894FF6FF7606EA05252A434FF65F
:102BB000FF352A408D8806EA05252A4346F6FF752B
:102BC0002B4045F6FF752B408D8906EA05152B43F2
:102BD000CD8906EA05152B4383808483028470BD6A
:102BE00070B5002400220023058C4EF6FF76354098
:102BF0000584028C8388848B48F6FF752C400D88F1
:102C00004FF6FF7606EA05252C434DF6FF752A4060
:102C10000D8906EA05352A434D8806EA05352A431B
:102C2000CD88A0F840504C4DA84202D0504DA8424B
:102C300007D1C3F30D038D894FF6FF7606EA85159C
:102C40002B4383808483028470BD828B4FF2FF33D9
:102C50001A408283828B4FF6FF7303EA01231A43E3
:102C600082837047F0B50C461546002100220026ED
:102C7000078C4EF6FF7C07EA0C070784818B028CD9
:102C80004FF6FF7707EA043640F6FF4739404FF624
:102C9000FF7707EA052739434FF6FF7707EA03373F
:102CA00039434DF6FF773A4046F480573A438183E3
:102CB0000284F0BD828B4FF6F3731A408283828BBD
:102CC0000A4382837047F0B50C4615460021002266
:102CD0000026078C4FF6FF6C07EA0C070784818BF0
:102CE000028C4FF6FF7707EA04264FF60C7739403F
:102CF0004FF6FF7707EA03172F4339434FF6FF5785
:102D00003A4046F480773A4381830284F0BD028BD7
:102D10004FF2FF331A400283028B4FF6FF7303EA30
:102D200001231A4302837047F0B50C461546002173
:102D300000220026078C4FF6EF7C07EA0C07078479
:102D4000018B028C4FF6FF7707EA041640F6FF4727
:102D500039404FF6FF770DE0002C014000040040A1
:102D600000080040000C004000100040001400402B
:102D70000034014007EA033739434FF6FF7707EA8B
:102D8000052739434FF6DF773A4046F010073A43BC
:102D900001830284F0BD028B4FF6F3731A40028365
:102DA000028B0A4302837047F0B50C46154600219A
:102DB0000022068C4FF6FE773E400684018B028C83
:102DC0004FF60C7631407E1C06EA03162E43314343
:102DD0007E1E324044F00106324301830284F0BD7E
:102DE00070B505460C46208850B92389A2886188B1
:102DF0002846FFF7D9FFE1882846FFF7CCFF25E0FA
:102E0000208804280AD12389A28861882846FFF7F0
:102E10008BFFE1882846FFF77AFF17E02088082813
:102E20000AD12389A28861882846FFF74CFFE188F0
:102E30002846FFF73FFF09E02389A28861882846DA
:102E4000FFF710FFE1882846FFF7FFFE70BD2DE970
:102E5000F04105460C4600260127608808B9022685
:102E600000E00026A088012801D1022700E0012708
:102E70002088A0B92389A28861882846FFF794FF9B
:102E8000E1882846FFF787FF23893A4631462846DE
:102E9000FFF74AFFE1882846FFF739FF13E023894F
:102EA000A28861882846FFF73FFFE1882846FFF7A0
:102EB0002EFF23893A4631462846FFF775FFE18801
:102EC0002846FFF768FFBDE8F0810A884B881A435F
:102ED0008B881A43CB881A430B891A434B891A43B0
:102EE0008B891A43A0F8442070474FF6FF71818008
:102EF00000210180C1804180017270470021018062
:102F000041808180C180018141818181C18170477F
:102F1000002101804180012181800021C180018147
:102F200070470021018041808180C1800181418101
:102F30008181704721B1028842F00102028004E0E1
:102F4000028840F2FE331A400280704731B1B0F877
:102F5000442042F40042A0F8442005E0B0F84420A8
:102F6000C2F30E02A0F8442070471AB183890B43C4
:102F7000838102E083898B4383817047818270471C
:102F800041EA0203A0F8483070471AB183890B4325
:102F9000838102E083898B438381704701894FF6E7
:102FA000F8721140018170470A46002101894FF6ED
:102FB0008F73194011430181704730B504460D46A7
:102FC00029462046FFF7F0FF208940F007002081C6
:102FD00030BD2DE9F04104460D4616461F46602DD2
:102FE00006D13B46012231462046FFF79DFE05E013
:102FF0003B46012231462046FFF7D6FE29462046B1
:10300000FFF7D2FF208940F007002081BDE8F08162
:1030100030B50C4600210189C9B24FF6FF7505EAAB
:103020000325154325432943018130BD2DE9F04196
:1030300005460E4617469846002443463A46314612
:103040002846FFF7E5FF2C894FF6F870044044F05E
:1030500007044FF68F70044044F070042C81BDE8E3
:10306000F081F0B504460D4616461F463B463246F3
:1030700029462046FFF7CCFF208940F4804020817C
:10308000F0BD0185828270470A460021018840F226
:103090008F331940114301807047F0B50C46154637
:1030A0001E460021002200230189028B038C4FF66B
:1030B000F877394021434FF6FC473A4040F2011778
:1030C0003A434FF6DD773B404FF6FF7707EA0617A6
:1030D0002F433B43018102830384F0BD0A46002154
:1030E000018B4FF68F7319401143018370470A46D5
:1030F0000021018B48F6FF7319404FF6FF7303EA76
:1031000002231943018370470A460021818B4FF641
:103110008F7319401143818370470A460021818BC8
:1031200048F6FF7319404FF6FF7303EA0223194371
:103130008183704721B1028842F08002028004E05E
:10314000028840F27F331A400280704721B18288A2
:1031500042F00402828004E082884FF6FB731A403A
:103160008280704721B1828842F00802828004E0A8
:1031700082884FF6F7731A408280704721B18288A7
:1031800042F00102828004E082884FF6FE731A400A
:10319000828070470A460021018B4FF6F773194071
:1031A0001143018370470A460021018B4FF2FF73E0
:1031B00019404FF6FF7303EA022319430183704756
:1031C0000A460021818B4FF6F77319401143818322
:1031D00070470A460021818B4FF2FF7319404FF66A
:1031E000FF7303EA02231943818370470A460021D3
:1031F000018B4FF6FB7319401143018370470A4658
:103200000021018B4FF6FF3319404FF6FF7303EA9D
:1032100002231943018370470A460021818B4FF630
:10322000FB7319401143818370470A460021818B4B
:103230004FF6FF3319404FF6FF7303EA0223194399
:10324000818370470A460021018B4FF67F73194036
:103250001143018370470A460021018BC1F30E011F
:103260004FF6FF7303EA02231943018370470A46AE
:103270000021818B4FF67F73194011438183704782
:103280000A460021818BC1F30E014FF6FF7303EA5A
:1032900002231943818370470A460021018C4FF6AF
:1032A000FD7319401143018470470A460021018CC7
:1032B0004FF6F77319401143018470470A46002105
:1032C000018C4FF6DF7319404FF6FF7303EA0213C8
:1032D0001943018470470A460021018C4FF67F7321
:1032E00019404FF6FF7303EA021319430184704734
:1032F0000A460021018C4FF6FF5319404FF6FF7329
:1033000003EA02231943018470470A460021018C15
:103310004FF2FF7319404FF6FF7303EA022319437C
:10332000018470470A460021018C4DF6FF73194055
:103330004FF6FF7303EA023319430184704730B537
:10334000002301248C40A3B2048C9C430484048C8D
:1033500002FA01F5ADB22C43048430BD30B5002330
:1033600004248C40A3B2048C9C430484048C02FA91
:1033700001F5ADB22C43048430BD70B50346002086
:1033800000241846183001258D40ACB21D8CA54391
:103390001D8409B108290AD100EB610005684FF6C8
:1033A0008F76354005600568154305600FE00D1FF9
:1033B000C5F34E052844056848F6FF76354005609C
:1033C00005684FF6FF7606EA02263543056070BDB4
:1033D00021B1028842F00202028004E0028840F239
:1033E000FD331A400280704721B1028842F0040286
:1033F000028004E0028840F2FB331A4002807047EA
:1034000021B1828842F08002828004E082884FF6F7
:103410007F731A4082807047028840F2F7331A4067
:10342000028002880A430280704782884FF68F73B9
:103430001A40828082880A438280704702894FF650
:10344000F8731A40028102890A4302817047028997
:103450004FF67F731A40028102890A430281704746
:1034600081847047818570478186704701877047E6
:1034700081877047A0F8401070470288D2B202805E
:1034800002880A43028070470146888E70470146D1
:10349000088F70470146888F70470146B1F8400099
:1034A00070470146888C70470146088D7047024678
:1034B0000020138A0B400BB1012000E00020704770
:1034C000CA430282704730B5024600200023002420
:1034D000158A05EA0103958905EA010413B10CB1C7
:1034E000012000E0002030BDCA4302827047000086
:1034F00010B50446E248844209D101218803FFF750
:10350000EDF900214FF48040FFF7E8F932E0DD48A3
:10351000844209D101214804FFF7EDF900214FF45D
:103520000030FFF7E8F925E0D748844209D10121AE
:103530008804FFF7E0F900214FF48020FFF7DBF962
:1035400018E0D248844209D10121C804FFF7D3F919
:1035500000214FF40020FFF7CEF90BE0CC48844265
:1035600008D101210805FFF7C6F900214FF48010AA
:10357000FFF7C1F910BD2DE9F04786B005460E46AC
:103580000024A24600BF00BF0027B08900B100BFE1
:103590002F462C8A4CF6FF700440F08804432C829E
:1035A000AC894EF6F3100440B08831890843718924
:1035B00008430443AC81AC8A4FF6FF400440B08915
:1035C0000443AC8201A8FFF781F8AD48874202D1DD
:1035D000DDF810A001E0DDF80CA00AEBCA0000EB5A
:1035E0000A1031688900B0FBF1F86420B8FBF0F0F4
:1035F00004012009642101FB1089322000EB09102D
:10360000B0FBF1F000F00F0004432C8106B0BDE8E0
:10361000F0874FF41651016000218180C180018143
:103620000C21418100218181704710B502460020A4
:10363000108A4FF2FF0318400B884C8823438C8874
:103640002343CC8823431843108210BD00210180FE
:1036500041808180C180704721B1828942F400524B
:10366000828104E082894DF6FF731A40828170479F
:10367000F0B50346002400260025002040F66A1716
:10368000B94200D100BF1846C1F3421401F01F0631
:10369000012707FA06F5012C01D10C3004E0022CB9
:1036A00001D1103000E014301AB107682F430760D1
:1036B00002E00768AF430760F0BD1AB1838A0B438D
:1036C000838202E0838A8B4383827047028A4FF6AB
:1036D000F0731A400282028A0A430282704782898A
:1036E0004FF2FF731A40828182890A4382817047B8
:1036F00021B1828942F00202828104E082894FF680
:10370000FD731A4082817047028A4FF6DF731A40B8
:103710000282028A0A430282704721B1028A42F47D
:103720008042028204E0028A4BF6FF731A40028252
:103730007047C1F308028280704701468888C0F351
:1037400008007047818941F0010181817047028B37
:10375000D2B20283028B42EA012202837047028BBB
:1037600002F47F420283028B0A430283704721B135
:10377000828A42F02002828204E0828A4FF6DF735E
:103780001A408282704721B1828A42F010028282FE
:1037900004E0828A4FF6EF731A408282704721B1AB
:1037A000828A42F00802828204E0828A4FF6F7732E
:1037B0001A4082827047828A4FF6FB731A408282D7
:1037C000828A0A438282704721B1828A42F00202D1
:1037D000828204E0828A4FF6FD731A40828270472B
:1037E00002460020B1F5007F00D100BF13880B40D6
:1037F0000BB1012000E00020704701F40072B2F527
:10380000007F00D100BFCA430280704770B50246F6
:10381000002400230025002040F66A16B14200D1A2
:1038200000BFC1F3421501F01F03012606FA03F39E
:10383000012D02D19689334006E0022D02D1168A6D
:10384000334001E0968A33400C12012606FA04F454
:103850001688344013B10CB1012000E0002070BD87
:1038600010B50022002340F66A14A14200D100BF27
:103870000A1201249440A3B2DC43048010BD00006E
:10388000003801400044004000480040004C004027
:103890000050004010B501218803FFF712F8002105
:1038A0004FF48040FFF70DF810BD38B503460C46C5
:1038B000002100200090F648016901F01C014FF43E
:1038C000784000EAC32001434FF4F86000EA841016
:1038D000014341F0020141F00101ED484261016103
:1038E00000BF0098401C0090E948016901F0010008
:1038F00018B1E84D0098A842F3D3E64D0098A842CD
:1039000001D1002038BD0120FCE718B502460B4666
:10391000002100200090DE48016901F01C014FF4F5
:10392000784000EAC22001434FF4F86000EA8310B7
:10393000014321F0020141F00101D548016100BFBE
:103940000098401C0090D248016901F0010018B1B4
:10395000D04C0098A042F3D3CE4C0098A04201D1A5
:10396000002018BDCA48406980B2FAE72DE9F0414D
:1039700088B004460F464FF000080025002007904D
:10398000C54E0190C248056925F01C0502A8FEF746
:103990009DFE039EC148864205D3C148864202D29D
:1039A00045F0080509E0BE48864205D3BA4886427C
:1039B00002D245F00C0500E000BFB54805614FF4A8
:1039C000004200213846FFF770FF18B9002008B008
:1039D000BDE8F081B348079002E00798401E0790C9
:1039E00007980028F9D12068002844D000BF01982A
:1039F000401C019001213846FFF787FF00F00400CA
:103A000018B9A44901988842F1D300BF0020019061
:103A10004FF4805200213846FFF747FF08B90020D5
:103A2000D5E700BF0198401C019001213846FFF7FF
:103A30006CFF00F0200018B9964901988842F1D334
:103A400000BF0020019010213846FFF75EFF80463E
:103A500008F0040018B14FF40060206201E000207B
:103A6000206208F0020010B1002060611CE04FF4F9
:103A70008040606118E0206AC0F3CF006169C1F343
:103A80004F0140EA010200213846FFF70EFF08B956
:103A900000209CE76FF07F40079002E00798401EEF
:103AA000079007980028F9D1794805687E480540B5
:103AB000D4E901010843E1680843216908436169C9
:103AC0000843A1690843E1690843216A0843616A20
:103AD0000843A16A0843E16A0843216B0843616B0C
:103AE000084305436A480560D4E90E010843216C88
:103AF0000843616C0843A16C0843E16C0843216DE5
:103B00000843616D084362494860A06D8860E06DBC
:103B1000C860084685694FF641700540B4F86010EA
:103B2000606E40EA0140A16E0843E16E0843216FD8
:103B30000843616F0843054355488561D4E91E0178
:103B400008435349C8615948856959480540D4E933
:103B500020010843D4F888100843D4F88C10084397
:103B6000D4F890100843D4F894100843D4F898106F
:103B70000843D4F89C100843D4F8A0100843054328
:103B80004A488561D4E929010843D4F8AC100843B8
:103B9000D4F8B0100843D4F8B41040EA8100D4F847
:103BA000B810084340F400004049086001200EE7C7
:103BB0000021016041608160C160016141618161FA
:103BC000C161016241628162C162016341638163DB
:103BD000C163402101642021416400218164C164EA
:103BE000016541658165C1650166802141660021ED
:103BF0008166C166016741678167C1674FF0806177
:103C0000C0F880104910C0F884104910C0F888101E
:103C1000C910C0F88C100021C0F89010C0F89410A2
:103C2000C0F89810C0F89C10C0F8A0104FF00071B8
:103C3000C0F8A4100021C0F8A8104FF40031C0F85B
:103C4000AC104912C0F8B0100021C0F8B410C0F890
:103C5000B810704730B11549896941F00201134A23
:103C6000916105E01149896921F002010F4A9161D2
:103C7000704730B10D49896941F400510B4A916197
:103C800005E00A49896921F40051084A91617047A9
:103C900000800240FFFF040000879303002D3101E4
:103CA000C00E1602FFFF0F000F8120FF00900240A0
:103CB000233FDEF830B1FB49096841F00401F94ABD
:103CC000116005E0F749096821F00401F54A116027
:103CD0007047F548806940F48010F3498861704767
:103CE00030B1F049096841F00801EE4A116005E081
:103CF000EC49096821F00801EA4A1160704700B5F3
:103D00000120FFF7EDFFFFF7E4FF0120FFF7D2FFEF
:103D10000120FFF7AEFF0120FFF79CFF00BD10B5AB
:103D200003460A460021E1480068006800F00040B0
:103D300008B1002010BD002105E0585CDB4C246870
:103D4000A4686054491C9142F7D3C2F30C00D74CCD
:103D500024686060D5480068006840F04050D34C4B
:103D600024682060D1480068006840F00040CF4CD3
:103D700024682060CC48406900F0040020B1042091
:103D8000C94C606100206060C8480068006800F4A9
:103D9000801028B1C5480068C068C44C206014E099
:103DA000C2480068006800F4001020B1BE480069F5
:103DB000BE4C206009E0BC480068C0F38404BB48E6
:103DC000006810302044B94C20600120B2E710B5E3
:103DD000024600210023B6480068006800F0004059
:103DE00008B1002010BDB2480068008800F400400F
:103DF000E0B9AF480068008800F48070B0B1AC480A
:103E00000068008800F4007080B1A948006800686C
:103E1000C0F30D40031F002105E0A548006880683D
:103E2000405C5054491C9942F7D300E000234FF006
:103E300000409F4C246820609B48406900F080004F
:103E400020B18020984C60610020A06098480068F4
:103E5000808800F4804028B195480068C068944C80
:103E6000206014E092480068808800F4004020B18F
:103E70008D48C0688E4C206009E08B480068C0F314
:103E800084048B48006810302044894C2060184618
:103E9000A8E701460868C0F30D40704700B500224E
:103EA00083480068006800F00040B0B980480068AE
:103EB000008800F4004080B97D480068008800F464
:103EC000807050B17A480068008800F4007020B11A
:103ED00077480068FFF7DDFF0246104600BD4FF04F
:103EE000004073490968086071480068808800F4E0
:103EF000804028B16E480068C0686D49086014E0D1
:103F00006B480068808800F4004020B16648C068B3
:103F10006749086009E064480068C0F384016448A8
:103F200000681030084462490860704770B5064662
:103F30000D46002400213046FFF7E7FC044615B18A
:103F400044F4804402E04BF6FF7004402246002116
:103F50003046FFF7AAFC08B1012070BD0020FCE745
:103F600000205049896901F0010109B1012000E0F8
:103F7000002070474B48806940F001004949886142
:103F8000704730B14749896941F00101454A916163
:103F900005E04449896921F00101424A9161704775
:103FA000014600203F4A926B0A400AB1012000E01E
:103FB00000207047014600203A4A926B0A400AB13D
:103FC000012000E00020704729B1364AD26B8243BD
:103FD000344BDA6304E0334AD26B0243314BDA6389
:103FE000704710B50B794C7943EA04222D4B0344FA
:103FF0001A64CB781B068C7843EA04434C7843EA76
:1040000004230C7843EA0402264B03445A6410BD8F
:104010000246244B1344186C030A4B710871214B60
:104020001344586C030ECB70030C8B70030A4B7057
:104030000870704741B11B4A0244126C42F00042C2
:10404000184B03441A6407E0164A0244126C22F02B
:104050000042144B03441A647047082908D0114ADF
:104060000244126C42F080420E4B03441A6407E093
:104070000C4A0244126C22F080420A4B03441A6438
:104080007047084A0244126C22F07C52054B0344EC
:104090001A64044A0244126C0A43024B03441A6431
:1040A0007047000000800240009002408000002025
:1040B0008400002030B50C4613460021F64D2860E0
:1040C00000BF15E000EB01124FF480151560C1EB45
:1040D000411505EB811504EB051595605D1E8D42BC
:1040E00004D900EB01151035D56000E0D060491C03
:1040F0009942E7D3E94D286130BD70B504460D46BD
:104100000020E54E346000BF16E004EB0011C0EB68
:10411000401606EB801605EB06168E60C0EB4016C7
:1041200006EB801602EB0616CE605E1E864202D1BA
:104130004FF400160E60401C9842E6D3D74E34610F
:1041400070BD0246002013680B400BB1012000E057
:104150000020704701460878C0F3C300704701682B
:1041600041F000410160704721B1026842F0804295
:10417000026003E0026822F0804202607047026839
:104180000A430260704702680A430260704721B127
:10419000026822F00062026003E0026842F00062FE
:1041A0000260704721B1026842F40012026003E02D
:1041B000026822F400120260704721B1026842F4E2
:1041C0008012026003E0026822F4801202607047ED
:1041D00021B1026822F08062026003E0026842F0CE
:1041E00080620260704721B1026842F00072026092
:1041F00003E0026822F000720260704710B541EAE5
:10420000024443682343436010BD30B50C46134657
:104210000021A34D286000BF18E000EB01124FF011
:104220000045156044F2F0555560C1EB411505EBB2
:10423000811504EB051595605D1E8D4204D900EBD8
:1042400001151035D56000E0D060491C9942E4D3D7
:10425000924DE86030BD70B504460D460021904E89
:10426000346000BF1DE004EB01104FF00046066013
:104270004FF4BE664660C1EB411606EB811605EBB6
:1042800006168660C1EB411606EB811602EB061698
:10429000C6605E1E8E4203D1466846F40046466004
:1042A000491C9942DFD37D4EF46070BD0246002068
:1042B00013680B400BB1012000E00020704701683B
:1042C00041F000410160704721B1426822F0004294
:1042D000426003E0426842F000424260704721B110
:1042E000426842F40042426003E0426822F4004225
:1042F0004260704721B1426842F48042426003E06C
:10430000426822F4804242607047024619B1506808
:10431000C0F30C4070479088C0F30C00FAE75F4888
:10432000006840F001005D490860704700205B496B
:10433000096801F0010109B1012000E00020704787
:1043400001460020554A52690A400AB1012000E0A6
:1043500000207047514948617047014600204F4A8C
:1043600052690A400AB1012000E0002070474B4921
:10437000486170474948406900F00100704747486C
:10438000406900F04000704700204449896901F409
:10439000801109B1012000E00020704729B13F4A97
:1043A000D26902433D4BDA6104E03C4AD269824360
:1043B0003A4BDA61704701460020384A126A0A40D7
:1043C0000AB1012000E0002070473448006AC0F3C1
:1043D0004A4070473148006A80B270472F48806C6D
:1043E00070472E48C06C70472C48006D70472B48B2
:1043F000406D7047002029494860704700202749D8
:10440000886070472748C06A40F000402549C8626C
:1044100070470146002000BF04E051F82020214BE6
:104420009A62401C0828F8D3704730B11D49C96A08
:1044300041F400711B4AD16205E01A49C96A21F4AE
:104440000071184AD162704701460020154AD26AAD
:104450000A400AB1012000E00020704730B1114944
:10446000C96A41F004010F4AD16205E00D49C96AE9
:1044700021F004010B4AD162704730B10949C96A81
:1044800041F00201074AD16205E00649C96A21F0FC
:104490000201044AD162704780000020009002406F
:1044A000840000200080024030B1F849C96A41F020
:1044B0000101F64AD16205E0F449C96A21F001011F
:1044C000F24AD162704738B1F149096841F00801F8
:1044D000EE4AC2F8001106E0ED49096821F0080132
:1044E000EA4AC2F80011704738B1E949096841F059
:1044F0000401E64AC2F8001106E0E549096821F026
:104500000401E24AC2F80011704738B1E049096875
:1045100021F00201DD4AC2F8001106E0DC49096819
:1045200041F00201D94AC2F800117047D84800682A
:1045300040F00100D549C1F80001704700F08052F9
:1045400092B120F0805039B1D14A0C3212688243C6
:10455000CE4BC3F80C2117E0CD4A0C32126802434F
:10456000CA4BC3F80C210FE039B1C94A10321268A6
:104570008243C64BC3F8102106E0C54A10321268C8
:104580000243C24BC3F8102170470146002001F0DE
:1045900080526AB1BE4A121D12680A4032B1BC4A4A
:1045A0000C3212680A400AB101200EE000200CE033
:1045B000B74A083212680A4032B1B54A0C32126862
:1045C0000A400AB1012000E0002070470146AF48D0
:1045D00008587047AF48006840F02000AD490860B7
:1045E0007047AC48006840F01000AA490860704766
:1045F000A848006840F00800A64908607047A54830
:10460000006840F00400A3490860704730B1A14938
:10461000096841F002019F4A116005E09D4909685F
:1046200021F002019B4A1160704730B19949096835
:1046300041F00101974A116005E09649096821F0AF
:104640000101944A1160704701460020914A1268A6
:104650000A400AB1012000E0002070478D49091D81
:104660000860704710B58B4B1033196040EA0203A5
:10467000884C1434236010BD864918310860704797
:10468000844A1C321060121D1160704701467F4839
:1046900008587047F0B504460D4600207E4E346041
:1046A0007E4E356000BF1DE004EB00114FF0047634
:1046B0000E60C0EB401606EB801602EB06168E600D
:1046C0005E1E864204D904EB00161036CE6000E070
:1046D000CC6005EB00178E68BE6005EB0017CE6856
:1046E000FE60401C9842DFD3461E05EB061635607F
:1046F0006B4E3461F0BDF0B504460D460020694EA6
:104700003460694E356000BF20E004EB00114FF0CB
:1047100000460E6044F2F0564E60C0EB401606EBC9
:10472000801602EB06168E605E1E864204D904EBEC
:1047300000161036CE6000E0CC6005EB00178E68E6
:10474000BE6005EB0017CE68FE60401C9842DCD3CB
:10475000461E05EB06163560514EF460F0BD70B58F
:1047600005460B46002100244B480068006800F015
:10477000004008B1002070BD002105E0685C474E94
:104780003668B6687054491C9942F7D3C3F30C00DD
:10479000414E3668706040480068006840F0405004
:1047A0003D4E366830603C480068006840F000408C
:1047B000394E366830603A48406900F0040020B154
:1047C0000420374E70610020706000BF641C3248C6
:1047D0000068006800F4003018B94FF6FF7084429A
:1047E000F4D33248844201D10020C4E72A4800684B
:1047F000006820F40030284E366830602648006893
:10480000806801C224480068C068106022480068BF
:10481000006800F48010A0B120480068C0681E4EF7
:1048200030601E480068006828B11C4800680068B5
:104830001A4E306028E0194800681030174E30607A
:1048400022E015480068006800F4001040B11448E8
:104850000069114E306012480069104E306013E05C
:104860000F480068C0F384060B48006810303044DD
:10487000094E30600A480068C0F3840607480068A3
:1048800010303044054E3060012074E70080024053
:104890000081024000870240800000208800002044
:1048A00000900240840000208C000020FFFF0400E4
:1048B00030B50346002200243B480068006800F041
:1048C000004008B1002030BD37480068008800F47F
:1048D0000040E0B934480068008800F48070B0B14E
:1048E00031480068008800F4007080B12E480068EC
:1048F0000068C0F30D40041F002205E02B4800684B
:104900008068805C9854521CA242F7D300E00024D7
:104910002748406900F0800020B18020244D686164
:104920000020A86020480068806801C11E48006817
:10493000C06808601C480068006840F000401A4DDC
:104940002D68286018480068808800F48040A0B175
:1049500016480068C068144D286014480068006854
:1049600028B1124800680068104D28601AE00F480E
:10497000006810300D4D286014E00B4800688088F6
:1049800000F4004020B10A48C068074D286009E0E3
:1049900007480068C0F384050348006810302844C5
:1049A000014D286020468EE7840000208C00002006
:1049B0000090024001460020FD4A106800F03800D7
:1049C000084310607047FA49096821F00801F84A65
:1049D000116011460968014311607047F449096884
:1049E00021F01001F24A116011460968014311607B
:1049F0007047F048EE494860EF4848607047EC481F
:104A0000006940F08000EA49086170470420E849E5
:104A1000C96801F0010109B101200EE0E449C9684B
:104A200001F0040109B1022007E0E149C96801F081
:104A3000100109B1032000E00420704708B50020F0
:104A40000090FF20009002E00098401E0090009827
:104A50000028F9D108BD70B504460425FFF7D6FF3C
:104A6000054605E0FFF7EAFFFFF7D0FF0546641EA5
:104A7000012D01D1002CF5D104B90525284670BDC2
:104A800070B50546042440F6FF70FFF7E4FF0446C6
:104A9000042C19D1C648006940F00200C4490861DD
:104AA00008464561006940F04000086140F6FF702B
:104AB000FFF7D1FF0446052C06D0BD48006941F63A
:104AC000FD710840BA490861204670BD10B5042444
:104AD00040F6FF70FFF7BFFF0446042C18D1B4481E
:104AE000006940F00400B24908610846006940F0DE
:104AF0004000086140F6FF70FFF7ADFF0446052C4B
:104B000006D0AB48006941F6FB710840A84908612E
:104B1000204610BD10B5042440F6FF70FFF79BFF40
:104B20000446042C3BD1A348A1498860A248886070
:104B30000846006940F0200008610846006940F01E
:104B40004000086140F6FF70FFF785FF0446042C23
:104B50001CD19748006941F6DF710840944908610B
:104B60000846006940F010000861A52093490880BC
:104B70000F20FFF770FF0446052C10D08C48006909
:104B800041F6EF7108408A49086108E0052C06D01B
:104B90008748006941F6EF71084085490861204661
:104BA00010BDF8B506460D460424002000900F20E5
:104BB000FFF751FF0446042C28D17D48006940F0DE
:104BC00001007B49086135800F20FFF744FF044650
:104BD000042C12D1B01C0090280C009908800F20E2
:104BE000FFF739FF0446052C10D07148006941F6E3
:104BF000FE7108406E49086108E0052C06D06C483B
:104C0000006941F6FE710840694908612046F8BD17
:104C100070B505460E4604240F20FFF71CFF04461E
:104C2000042C13D16248006940F00100604908611A
:104C30002E800F20FFF70FFF0446052C06D05C489E
:104C4000006941F6FE71084059490861204670BD6F
:104C500070B505460E4604240F20FFF7FCFE0446FF
:104C6000042C17D15348524988605348886008463D
:104C7000006940F0100008612E800F20FFF7EBFE66
:104C80000446052C06D04A48006941F6EF710840F9
:104C900047490861204670BD2DE9F04704464FF6AC
:104CA000FF763746B046B1460425E443E6B2C4F386
:104CB0000727C4F307484FEA14690F20FFF7CBFE1C
:104CC0000546042D40D13B48394988603A48886000
:104CD0000846006940F010000861FF2E06D03748F2
:104CE000083006800F20FFF7B6FE0546042D08D1D8
:104CF000FF2F06D031480A3007800F20FFF7ABFEA8
:104D00000546042D0AD1B8F1FF0F07D02B480C300F
:104D1000A0F800800F20FFF79EFE0546042D0AD163
:104D2000B9F1FF0F07D025480E30A0F800900F20F2
:104D3000FFF791FE0546052D06D01D48006941F696
:104D4000EF7108401A4908612846BDE8F08770B540
:104D50000546042440F6FF70FFF77DFE0446042C50
:104D600049D1144812498860134888600846006990
:104D700040F0200008610846006940F040000861EA
:104D800040F6FF70FFF767FE0446042C2AD108485E
:104D9000006941F6DF71084005490861084600696D
:104DA00040F0100008615DB10020044908800AE06D
:104DB0000020024023016745AB89EFCD00F8FF1FBB
:104DC000A5204549088040F6FF70FFF744FE0446E1
:104DD000052C10D04148006941F6EF7108403F4969
:104DE000086108E0052C06D03C48006941F6DF71F7
:104DF00008403A490861204670BD2DE9F04105465A
:104E00000E46174604243648344988603548886081
:104E10000F20FFF720FE0446042C19D12F4800690B
:104E200040F010002D49086147F0F8003043284356
:104E30002949891C08800F20FFF70DFE0446052C28
:104E400006D02648006941F6EF7108402349086101
:104E50002046BDE8F0812148C069800870471F489E
:104E6000006A704700201D49C96901F0020109B1BB
:104E7000012000E00020704700201849096801F077
:104E8000200109B1012000E00020704729B1134A38
:104E900012690243114B1A6104E0104A12698243FD
:104EA0000E4B1A61704701460020012908D10B4AB8
:104EB000D26902F001020AB1012008E0002006E0F8
:104EC000064AD2680A400AB1012000E0002070477B
:104ED0000249C8607047000000F8FF1F0020024030
:104EE00023016745AB89EFCD10B50446F3488442F2
:104EF00009D101214805FDF7FEFC00214FF4001007
:104F0000FDF7F9FC08E001218805FDF7F4FC00211C
:104F10004FF48000FDF7EFFC10BD2DE9F04385B0A4
:104F200004460D460026B1460427DFF89483A68880
:104F30004FF6C07006406846FDF7C8FBDDF80880F4
:104F4000E048B8FBF0F01FFA80F946EA0906A680AF
:104F500020884FF6FE71084020800026DA49286834
:104F600088420CD828684000B8FBF0F087B2042FC4
:104F700000DA04273E4309F10100208427E0E88895
:104F80004BF6FF71884206D1286800EB4000B8FB61
:104F9000F0F087B209E0286800EBC00101EB0010D7
:104FA000B8FBF0F087B247F48047C7F30B0008B9AD
:104FB00047F0010747F4004006434FF4967009FBA1
:104FC00000F04FF47A7190FBF1F0401C2084A6832E
:104FD000208840F00100208026884FF6F5300640FA
:104FE000A8886989084306432680A8892989084337
:104FF000208105B0BDE8F08341F2883101600021D5
:1050000081804BF6FF71C1800021018141814FF405
:1050100080418181704721B1028842F00102028003
:1050200004E002884FF6FE731A400280704721B1F7
:10503000828842F40062828004E082884FF2FF732B
:105040001A408280704721B1828842F48052828067
:1050500004E082884EF6FF731A408280704721B1C7
:10506000028842F48072028004E002884FF6FF63F7
:105070001A400280704721B1028842F40072028017
:1050800004E002884FF6FF531A400280704721B1B6
:10509000028842F48062028004E002884FF6FF3307
:1050A0001A40028070470A46002181894FF6017339
:1050B000194002F0FE0319438181704721B18289B2
:1050C00042F00102828104E082894FF6FE731A40A9
:1050D0008281704721B1028842F04002028004E0E0
:1050E00002884FF6BF731A40028070471AB1838856
:1050F0000B43838002E083888B4383807047018267
:1051000070470146088AC0B2704712B141F00101F0
:1051100002E04FF6FE7319400182704708B502465F
:1051200000200090009200980844009000980088A9
:1051300008BD21B1028842F40042028003E00288E7
:10514000C2F30E0202807047B1F5005F04D10288FD
:1051500042F40052028004E002884DF6FF731A40C8
:105160000280704721B1028842F48052028004E03C
:1051700002884EF6FF731A4002807047B1F5006F47
:1051800004D1028842F40062028004E002884FF2F7
:10519000FF731A400280704721B1028842F020025A
:1051A000028004E002884FF6DF731A4002807047E5
:1051B0000146088B0012704721B1028842F01002AC
:1051C000028004E002884FF6EF731A4002807047B5
:1051D00021B9028842F08002028004E002884FF682
:1051E0007F731A4002807047B1F5804F05D0828BE3
:1051F0004BF6FF731A40828303E0828B42F48042B5
:105200008283704710B501460020002300228B8A5C
:105210000A8B120443EA020424F07F4010BD70B5EB
:1052200002460024002500230020958A138B1B04CE
:1052300045EA030626F07F448C4201D1012000E0BC
:10524000002070BD0CB5024600200023019300939E
:1052500000920B0F019321F07F41019B1BB1009B3A
:105260001433009303E0090C009B18330093009B58
:105270001B680B400BB1012000E000200CBD002298
:1052800021F07F42D3438382704730B5024600202D
:105290000023948801F0E06504EA154321F07F4182
:1052A000948A0C4014B10BB1012000E0002030BD05
:1052B000002221F07F42D343838270470054004094
:1052C00000127A0040420F00A08601000E490860DB
:1052D00070470D49486070470B49886070474AF62F
:1052E000AA200949086070474CF6CC40064908607E
:1052F000704701460020044AD2680A400AB10120E2
:1053000000E00020704700000030004010B56FF052
:105310000400FCF7E2FE09202B49087008460078DB
:1053200000EB4001C1EBC0104FF6FF7101EAC00075
:105330002649088010BD0146234A12784A434FF09F
:10534000E0235A6100229A611A46126942F0010272
:105350001A6100BF4FF0E022106900F001021AB19B
:1053600000F48032002AF5D04FF0E022126922F0DA
:1053700001024FF0E0231A6100229A617047014652
:10538000124A12884A434FF0E0235A6100229A6180
:105390001A46126942F001021A6100BF4FF0E02282
:1053A000106900F001021AB100F48032002AF5D031
:1053B0004FF0E022126922F001024FF0E0231A615F
:1053C00000229A61704700009000002092000020A7
:1053D00070B504460D46E1B2FE48FEF7AAF900BFDB
:1053E0004021FC48FEF7FCF90028F9D0204670BDAA
:1053F00070B503461C460D46002000BF02E02E5C3F
:105400002654401C9042FAD370BD30B587B0054693
:105410000C4601211120FDF73AFA0121C804FDF7DD
:1054200043FA4FF40060ADF8180003208DF81A001D
:1054300048208DF81B0006A9E748FCF7CDFE4FF485
:105440008060ADF8180018208DF81B0006A9E2480E
:10545000FCF7C2FE029524B14FF48050ADF80C0069
:1054600002E00020ADF80C000020ADF80E00012C89
:1054700003D1A002ADF8100009E0022C04D14FF4D2
:10548000C060ADF8100002E00020ADF81000002070
:10549000ADF814000C20ADF8120002A9CF48FEF7B9
:1054A0006AF8012240F22551CC48FEF7E1F80121CB
:1054B000CA48FEF7D1F834208DF8040000208DF89A
:1054C00005008DF8060001208DF8070001A8FCF703
:1054D000BAFD002007B030BD30B587B005460C4698
:1054E00001210920FDF7D3F901218804FDF7DCF93A
:1054F0004FF48060ADF8180003208DF81A001820D2
:105500008DF81B0006A9B648FCF766FE4FF4006054
:10551000ADF8180048208DF81B0006A9B048FCF72C
:105520005BFE029524B14FF48050ADF80C0002E010
:105530000020ADF80C000020ADF80E00012C03D1C6
:10554000A002ADF8100009E0022C04D14FF4C060B5
:10555000ADF8100002E00020ADF810000020ADF81A
:1055600014000C20ADF8120002A99E48FEF703F8C3
:10557000012240F225519B48FEF77AF80121994813
:10558000FEF76AF827208DF8040000208DF805004A
:105590008DF8060001208DF8070001A8FCF753FDE7
:1055A000002007B030BD30B587B005460C4601215C
:1055B0002120FDF76CF901214804FDF775F901215F
:1055C0000820FCF7DAFE2020ADF8180003208DF843
:1055D0001A0018208DF81B0006A98348FCF7FCFD73
:1055E0004020ADF8180048208DF81B0006A97E4821
:1055F000FCF7F2FD029524B14FF48050ADF80C0099
:1056000002E00020ADF80C000020ADF80E00012CE7
:1056100003D1A002ADF8100009E0022C04D14FF430
:10562000C060ADF8100002E00020ADF810000020CE
:10563000ADF814000C20ADF8120002A96548FDF782
:105640009AFF01216348FEF707F8012240F2255135
:105650006048FEF70DF826208DF8040002208DF832
:10566000050000208DF8060001208DF8070001A834
:10567000FCF7E9FC002007B030BD30B587B0054627
:105680000C46012144F20500FDF701F94FF40070CA
:10569000ADF8180003208DF81A0018208DF81B00B3
:1056A00006A95248FCF798FD4FF48060ADF8180049
:1056B00048208DF81B0006A94C48FCF78DFD02958B
:1056C00024B14FF48050ADF80C0002E00020ADF89A
:1056D0000C000020ADF80E00012C03D1A002ADF8A3
:1056E000100009E0022C04D14FF4C060ADF81000A6
:1056F00002E00020ADF810000020ADF814000C20EE
:10570000ADF8120002A93A48FDF735FF01213848EB
:10571000FDF7A2FF012240F225513548FDF7A8FF11
:1057200025208DF8040001208DF8050000208DF85B
:10573000060001208DF8070001A8FCF784FC00207A
:1057400007B030BD10B50446207830B92948046050
:10575000217A6068FFF791FF1CE02078012806D1CC
:1057600025480460217A6068FFF71DFF12E0207869
:10577000022806D121480460217A6068FFF7ACFE58
:1057800008E02078032805D11D480460217A60686C
:10579000FFF73BFE10BD2DE9F04104460D462746BC
:1057A00000260EE000BF40210C48FEF719F8002843
:1057B000F9D017F9012B91B20848FDF7BAFF701C18
:1057C00086B2AE42EEDB00BF40210448FEF708F887
:1057D000002817E00044004000100140004C004049
:1057E000000C014000480040001401400008014046
:1057F0000038014094000020980000209C00002008
:10580000A0000020E0D00020BDE8F0812DE9F041AB
:1058100004460D464FF48051FB48FCF78AFD2746AD
:1058200000260EE000BF4021F848FDF7D9FF002810
:10583000F9D017F9012B91B2F448FDF77AFF701CEB
:1058400086B2AE42EEDB00BF4021F048FDF7C8FF54
:105850000028F9D04FF48051EB48FCF76CFD002094
:10586000BDE8F0812DE9F04104460D4627460026AB
:105870000EE000BF4021E648FDF7B2FF0028F9D056
:1058800017F9012B91B2E248FDF753FF701C86B265
:10589000AE42EEDB00BF4021DD48FDF7A1FF00284E
:1058A000F9D00020BDE8F0812DE9F04104460D4615
:1058B000274600260EE000BF4021D648FDF790FFA6
:1058C0000028F9D017F9012B91B2D248FDF731FF2A
:1058D000701C86B2AE42EEDB00BF4021CD48FDF722
:1058E0007FFF0028F9D00020BDE8F08170B50446A4
:1058F0000D461646207820B931462846FFF7D4FFDA
:1059000016E02078012804D131462846FFF7AAFF87
:105910000EE02078022804D131462846FFF776FFB2
:1059200006E02078032803D131462846FFF733FFED
:1059300070BD70B505460C46287870B934B901229F
:1059400040F22551B348FDF793FE3BE0002240F2C0
:105950002551B048FDF78CFE34E0287801280ED19F
:1059600034B9012240F22551A948FDF781FE29E012
:10597000002240F22551A648FDF77AFE22E0287861
:1059800002280ED134B9012240F225519F48FDF77B
:105990006FFE17E0002240F225519C48FDF768FE9B
:1059A00010E0287803280DD134B9012240F22551A6
:1059B0009948FDF75DFE05E0002240F2255196482A
:1059C000FDF756FE70BD2DE9F041ADF50C7D0446A6
:1059D0000E4617464FF40B7101A812F017FA002576
:1059E000A846207898BB60898C49096888420CD009
:1059F00060898A4908608A480078401C8849087094
:105A000040460DF50C7DBDE8F08185480078002802
:105A10001CDD628904F10C0101A812F0DEF9658930
:105A20000020608140F22B2104F10C0012F0EEF90D
:105A300000207A4908607A49087029463B46324678
:105A400001A8D4F838C2E0474FFA80F89BE0FFE79E
:105A50002078012830D1608972490968884209D0CC
:105A600060897049086070480078401C6E49087071
:105A70004046C6E76C4800780028E7DD628904F1FB
:105A80000C0101A812F0A9F965890020608140F29B
:105A90002B2104F10C0012F0B9F9002061490860D3
:105AA0006149087029463B46324601A8D4F838C2FD
:105AB000E0474FFA80F866E02078022830D160890C
:105AC0005A490968884209D060895849086058488D
:105AD0000078401C56490870404692E754480078C8
